:020000040000FA
:2B000000FFFF62FF2500FFFFFFFFFFFFFFFFFFFFFFFFFFFFFFFFFFFFFFFFFFFFFFFFFFFFFFFFFFFFFFFFFFFFFFFFFF76
:2B002B00601886611886611986C11D067770077719860100000000188661188661188661188661188661188661808CBE
:2B005600401004411004E11004A11084422884E210040100000000100441100441100441100441100441100441808CBD
:2B008100000000000000000000000000000000000000000000000000000000000000000000000000000000000080E7ED
:2B00AC00000000000000000000000000000000000000000000000000000000000000000000000000000000000080E7C2
:2B00D700000000000000800200000000000000800000000000000000000000000000000000000000000000000080C5B7
:2B010200000000000000200000000000000000A00000000000000000000000000000000000000000000000000000EF23
:2B012D00000000000000000000000000000000000000000000000000000000000000000000000000000000000080E740
:2B015800000000000000000000000000000000000000000000000000000000000000000000000000000000000080E715
:2B018300000000000000000000000000000000000000000000000000000000000000000000000000000000000080E7EA
:2B01AE00000000000000000000000000000000000000000000000000000000000000000000000000000000000080E7BF
:2B01D900000000000000000000000000000000000000000000000000000000000000000000000000000000000080E794
:2B020400000000000000000000000000000000000000000000000000000000000000000000000000000000000080E768
:2B022F00080000000000000000000000000000000000000000000000000000000000000000000000000000000080EF2D
:2B025A00000000000000000000000000000000000000000000000000000000000000000000000000000000000080E712
:2B028500000000000000000000000000000000000000000000000000000000000000000000000000000000000080E7E7
:2B02B000000000000000000000000000000000000000000000000000000000000000000000000000000000000080E7BC
:2B02DB00000000000000000000000000000000000000000000000000000000000000000000000000000000000080E791
:2B030600000000000000000000000000000000000000000000000000000000000000000000000000000000000080E765
:2B033100000000000000000000000000000000000000000000000000000000000000000000000000000000000080E73A
:2B035C00000000000000000000000000000000000000000000000000000000000000000000000000000000000080E70F
:2B038700000000000800000000000000000000000000000000000000000000000000000000000000000000000000E75C
:2B03B200020000000800000000000000000000000000000000000000000000000000000000000000000000000088EDA1
:2B03DD00000000000000000000000000000000000000000000000000000000000000000000000000000000000080E78E
:2B040800000000000000000000000000000000000000000000000000000000000000000000000000000000000080E762
:2B043300000000000000000000000000000000000000000000000000000000000000000000000000000000000080E737
:2B045E00000000000000000000000000000000000000000000000000000000000000000000000000000000000080E70C
:2B048900020000000000000000000000000000000000000000000000000000000000000000000000000000000008ED51
:2B04B400800008800008800008800008800008800008000000000020000220000220000220000220000220000280E7BA
:2B04DF00800008800008800008800008800008800008000000000020000220000220000220000220000220000280E78F
:2B050A00000000000000000000000000000000000000000000000000000000000000000000000000000000000080E75F
:2B053500020000000000000000000000000000000000000000000000000000000000000000000000000000000008EDA4
:2B056000020000000000000000000000000000000000000000000000000000000000000000000000000000000080E509
:2B058B00040000000000000000000000000000000000000000000000000000000000000000000000000000000080E3DE
:2B05B600020000000000000000000000000000000000000000000000000000000000000000000000000000000080E5B3
:2B05E100020000000000000000000000000000000000000000000000000000000000000000000000000000000080E588
:2B060C00020000000000000000000000000000000000000000000000000000000000000000000000000000000008EDCC
:2B063700000000000000000000000000000000000000000000000000000000000000000000000000000000000080E731
:2B066200000000000000000000000000000000000000000000000000000000000000000000000000000000000080E706
:2B068D00000000000000000000000000000000000000000000000000000000000000000000000000000000000080E7DB
:2B06B800020000000000000000000000000000000000000000000000000000000000000000000000000000000008ED20
:2B06E300000000000000000000000000000000000000000000000000000000000000000000000000000000000080E785
:2B070E00000000000000000000000000000000000000000000000000000000000000000000000000000000000080E759
:2B073900000000000000000000000000000000000000000000000000000000000000000000000000000000000080E72E
:2B076400000000000000000000000000000000000000000000000000000000000000000000000000000000000080E703
:2B078F00020000000000000000000000000000000000000000000000000000000000000000000000000000000008ED48
:2B07BA00000000000000000000000000000000000000000000000000000000000000000000000000000000000080E7AD
:2B07E500000000000000000000000000000000000000000000000000000000000000000000000000000000000080E782
:2B081000000000000000000000000000000000000000000000000000000000000000000000000000000000000080E756
:2B083B00020000000000000000000000000000000000000000000000000000000000000000000000000000000008ED9B
:2B086600000000000000000000000000000000000000000000000000000000000000000000000000000000000080E700
:2B089100000000000000000000000000000000000000000000000000000000000000000000000000000000000080E7D5
:2B08BC00000000000000000000000000000000000000000000000000000000000000000000000000000000000080E7AA
:2B08E700000000000000000000000000000000000000000000000000000000000000000000000000000000000080E77F
:2B091200020000000000000000000000000000000000000000000000000000000000000000000000000000000008EDC3
:2B093D00000000000000000000000000000000000000000000000000000000000000000000000000000000000080E728
:2B096800000000000000000000000000000000000000000000000000000000000000000000000000000000000080E7FD
:2B099300000000000000000000000000000000000000000000000000000000000000000000000000000000000080E7D2
:2B09BE00020000000000000000000000000000000000000000000000000000000000000000000000000000000008ED17
:2B09E900000000000000000000000000000000000000000000000000000000000000000000000000000000000080E77C
:2B0A1400000000000000000000000000000000000000000000000000000000000000000000000000000000000080E750
:2B0A3F00000000000000000000000000000000000000000000000000000000000000000000000000000000000080E725
:2B0A6A00000000000000000000000000000000000000000000000000000000000000000000000000000000000080E7FA
:2B0A9500020000000000000000000000000000000000000000000000000000000000000000000000000000000008ED3F
:2B0AC000000000000000000000000000000000000000000000000000000000000000000000000000000000000080E7A4
:2B0AEB00000000000000000000000000000000000000000000000000000000000000000000000000000000000080E779
:2B0B1600000000000000000000000000000000000000000000000000000000000000000000000000000000000080E74D
:2B0B4100020000000000000000000000000000000000000000000000000000000000000000000000000000000008ED92
:2B0B6C00000000000000000000000000000000000000000000000000000000000000000000000000000000000080E7F7
:2B0B9700000000000000000000000000000000000000000000000000000000000000000000000000000000000080E7CC
:2B0BC200000000000000000000000000000000000000000000000000000000000000000000000000000000000080E7A1
:2B0BED00000000000000000000000000000000000000000000000000000000000000000000000000000000000080E776
:2B0C1800020000000000000000000000000000000000000000000000000000000000000000000000000000000008EDBA
:2B0C4300000000000000000000000000000000000000000000000000000000000000000000000000000000000080E71F
:2B0C6E00000000000000000000000000000000000000000000000000000000000000000000000000000000000080E7F4
:2B0C9900000000000000000000000000000000000000000000000000000000000000000000000000000000000080E7C9
:2B0CC400020000000000000000000000000000000000000000000000000000000000000000000000000000000008ED0E
:2B0CEF00000000000000000000000000000000000000000000000000000000000000000000000000000000000080E773
:2B0D1A00000000000000000000000000000000000000000000000000000000000000000000000000000000000080E747
:2B0D4500000000000000000000000000000000000000000000000000000000000000000000000000000000000080E71C
:2B0D7000000000000000000000000000000000000000000000000000000000000000000000000000000000000080E7F1
:2B0D9B00020000000000000000000000000000000000000000000000000000000000000000000000000000000008ED36
:2B0DC600000000000000000000000000000000000000000000000000000000000000000000000000000000000080E79B
:2B0DF100000000000000000000000000000000000000000000000000000000000000000000000000000000000080E770
:2B0E1C00000000000000000000000000000000000000000000000000000000000000000000000000000000000080E744
:2B0E4700020000000000000000000000000000000000000000000000000000000000000000000000000000000008ED89
:2B0E7200000000000000000000000000000000000000000000000000000000000000000000000000000000000080E7EE
:2B0E9D00000000000000000000000000000000000000000000000000000000000000000000000000000000000080E7C3
:2B0EC800000000000000000000000000000000000000000000000000000000000000000000000000000000000080E798
:2B0EF300000000000000000000000000000000000000000000000000000000000000000000000000000000000080E76D
:2B0F1E00020000000000000000000000000000000000000000000000000000000000000000000000000000000008EDB1
:2B0F4900000000000000000000000000000000000000000000000000000000000000000000000000000000000080E716
:2B0F7400000000000000000000000000000000000000000000000000000000000000000000000000000000000080E7EB
:2B0F9F00000000000000000000000000000000000000000000000000000000000000000000000000000000000080E7C0
:2B0FCA00000000000000000000000000000000000000000000000000000000000000000000000000000000000080E795
:2B0FF500000000000000000000000000000000000000000000000000000000000000000000000000000000000080E76A
:2B102000800008800008800008800008800008800008000000000020000220000220000220000220000220000280E742
:2B104B00800008800008800008800008800008800008000000000020000220000220000220000220000220000280E717
:2B107600000000000000000000000000000000000000000000000000000000000000000000000000000000000080E7E8
:2B10A100000000000000000000000000000000000000000000000000000000000000000000000000000000000080E7BD
:2B10CC00000000000000000000000000000000000000000000000000000000000000000000000000000000000080E792
:2B10F700000000000000000000000000000000000000000000000000000000000000000000000000000000000080E767
:2B112200000000000000000000000000000000000000000000000000000000000000000000000000000000000080E73B
:2B114D00000000000000000000000000000000000000000000000000000000000000000000000000000000000080E710
:2B117800000000000000000000000000000000000000000000000000000000000000000000000000000000000080E7E5
:2B11A300000000000000000000000000000000000000000000000000000000000000000000000000000000000080E7BA
:2B11CE00000000000000000000000000000000000000000000000000000000000000000000000000000000000080E78F
:2B11F900000000000000000000000000000000000000000000000000000000000000000000000000000000000080E764
:2B122400000000000000000000000000000000000000000000000000000000000000000000000000000000000080E738
:2B124F00000000000000000000000000000000000000000000000000000000000000000000000000000000000080E70D
:2B127A00000000000000000000000000000000000000000000000000000000000000000000000000000000000080E7E2
:2B12A500000000000000000000000000000000000000000000000000000000000000000000000000000000000080E7B7
:2B12D000000000000000000000000000000000000000000000000000000000000000000000000000000000000080E78C
:2B12FB00000000000000000000000000000000000000000000000000000000000000000000000000000000000080E761
:2B132600000000000000000000000000000000000000000000000000000000000000000000000000000000000080E735
:2B135100000000000000000000000000000000000000000000000000000000000000000000000000000000000080E70A
:2B137C00000000000000000000000000000000000000000000000000000000000000000000000000000000000080E7DF
:2B13A700000000000000000000000000000000000000000000000000000000000000000000000000000000000080E7B4
:2B13D2000A0000000800000000000000000000000000000000000000000000000000000000000000000000000000EDF1
:2B13FD00000000001200000000000000000000000000000000000000000000000000000000000000000000000080C46F
:2B142800000000000400000000000040000000000000000000000000000000000000000000000000000000000080E7EE
:2B145300000000002000000000000040000000000000000000000000000000000000000000000000000000000080A1ED
:2B147E00000000000000000000000000000000000000000000000000000000000000000000000000000000000080E7DC
:2B14A900000000000000000000000000000000000000000000000000000000000000000000000000000000000080E7B1
:2B14D400000000000000000000000000000000000000000000000000000000000000000000000000000000000080E786
:2B14FF00000000000000000000000010000010000100000000000000000000000000000000000000000000000080F62B
:2B152A00020000000000000400000000000048000000000000000000000000000000000000000000000000000000ED5B
:2B155500000000008000000000000000000000000000000000000000000000000000000000000000000000000080EF7C
:2B158000000000000000000000000000000000000000000000000000000000000000000000000000000000000080E7D9
:2B15AB0000020000040000022000002000022000020000000000000000000000000000000000000000000000008081A8
:2B15D600000110000100000210000000000330000100000000000000000000000000000000000000000000000080D43E
:2B1601000000000020000008004000840008820D0000000000000000000000000000000000000000000000000080C8F3
:2B162C00020000000000000000400000000000000000000000000000000000000000000000000000000000000080A52C
:2B165700000000000000000000000000000000000000000000000000000000000000000000000000000000000008EF71
:2B168200000000000000000000000080000880040000000000000000000000000000000000000000000000000088EBBE
:2B16AD0000000000000000080000000400000A0900000000000000000000000000000000000000000000000000088E5D
:2B16D800000000000000000000000000000000000000000000000000000000000000000000000000000000000008EFF0
:2B170300020000000000000000000000000000000000000000000000000000000000000000000000000000000080E554
:2B172E00800008800008800008800008800008800008000000000020000220000220000220000220000220000280E72D
:2B175900800008800008800008800008800008800008000000000020000220000220000220000220000220000280E702
:2B178400000000000000008000000000001000000000000000000000000000000000000000000000000000000080EE3C
:2B17AF00E20101E00101E003061000A66000061000000000000000000000000000000000000000000000000000089498
:2B17DA000202000010008021180000008205100000000000000000000000000000000000000000000000000000008AF6
:2B180500C40100C003004003BC00003CC00144000000000000000000000000000000000000000000000000000080EF81
:2B183000820100000800800080000000000000010000000000000000000000000000000000000000000000000080F58C
:2B185B00820B00000000008318000038820B00000000000000000000000000000000000000000000000000000080FEF7
:2B188600020000800100000100000018000000000000000000000000000000000000000000000000000000000008FC97
:2B18B100000000800100802118000018800100010000000000000000000000000000000000000000000000000000FD3B
:2B18DC00000200001000800000000020004000010000000000000000000000000000000000000000000000000000EB03
:2B190700E00100E0010060091E010016E00106600001000000000000000000000000000000000000000000000000F617
:2B193200828000000000002118100010080098800100000000000000000000000000000000000000000000000000E628
:2B195D00400300C00900C0023400003CC0091CC00900000000000000000000000000000000000000000000000088FEED
:2B198800800100000800000008040010000820000800000000000000000000000000000000000000000000000088C90E
:2B19B300008100000200808330000018010038800100000000000000000000000000000000000000000000000008EE8B
:2B19DE00000100800100800110000010800100000000000000000000000000000000000000000000000000000088E7CB
:2B1A0900822100800100002018020038880118800100000000000000000000000000000000000000000000000000D426
:2B1A3400000000000000800318000020002000800101000000000000000000000000000000000000000000000000EC3E
:2B1A5F00600001E0410060003E10000EE00306700200000000000000000000000000000000000000000000000080C083
:2B1A8A00800500000000002100100008882118000100000000000000000000000000000000000000000000000080AA87
:2B1AB500C20100402300C0002400003C40019CC00201000000000000000000000000000000000000000000000008E632
:2B1AE000020000802100002100000008800000010100000000000000000000000000000000000000000000000000FD90
:2B1B0B00840900000200800218020018010139801000000000000000000000000000000000000000000000000000C2DF
:2B1B3600020000000000000118000008000100000100000000000000000000000000000000000000000000000080E5FA
:2B1B6100820100008100802000000038882118802000000000000000000000000000000000000000000000000080D4C8
:2B1B8C008202000000000000000000208003400040000000000000000000000000000000000000000000000000089EE1
:2B1BB70060010060000160220610001EE00106E00300000000000000000000000000000000000000000000000000EDD4
:2B1BE200008000800300802118000018082008820100000000000000000000000000000000000000000000000080D6FB
:2B1C0D00C00300C0030040005C00003C40003C401100000000000000000000000000000000000000000000000000AAD7
:2B1C3800020100000400800140000018000008800000000000000000000000000000000000000000000000000080F4A5
:2B1C6300808000800100000019000018812128088300000000000000000000000000000000000000000000000008E562
:2B1C8E00800100000000800100000018800100000100000000000000000000000000000000000000000000000008FE89
:2B1CB900002000800100800118000018000010822100000000000000000000000000000000000000000000000088E58E
:2B1CE400000200800100000008000080004000000000000000000000000000000000000000000000000000000088D82A
:2B1D0F00620000600201600836010006600006700001000000000000000000000000000000000000000000000000E583
:2B1D3A00808000800100802110100018820510800100000000000000000000000000000000000000000000000080AAE2
:2B1D6500C0020040220040022C000024C00364C00700000000000000000000000000000000000000000000000080E54A
:2B1D9000800000002000800100040018000000010000000000000000000000000000000000000000000000000000E802
:2B1DBB00828100800300008238000020820500800500000000000000000000000000000000000000000000000088F613
:2B1DE600020000800100800118000018000000020000000000000000000000000000000000000000000000000080E735
:2B1E1100042100000000800100020018800100800100000000000000000000000000000000000000000000000080F272
:2B1E3C00020200000101000200010010800000800000000000000000000000000000000000000000000000000080F4EE
:2B1E6700620006700200E001260000AE6023067081000000000000000000000000000000000000000000000000009EA9
:2B1E9200828118000000802108100010002150000100000000000000000000000000000000000000000000000008A027
:2B1EBD0040027C404200C0013C00001CC20024C01000000000000000000000000000000000000000000000000080C6A5
:2B1EE800800110104000802108040008020000010000000000000000000000000000000000000000000000000080E7CF
:2B1F1300008038000200800328000030800101808300000000000000000000000000000000000000000000000000EE9B
:2B1F3E00820110000400800100000010800100900100000000000000000000000000000000000000000000000080B10D
:2B1F6900800138100200800110020038022020002000000000000000000000000000000000000000000000000008EE5F
:2B1F9400000200800100008000000088008000001000000000000000000000000000000000000000000000000088DDA2
:2B1FBF00600006F0210060022601001660000670000000000000000000000000000000000000000000000000008884FF
:2B1FEA00008000000000002018100010802050800500000000000000000000000000000000000000000000000088FFF8
:2B201500C2035C401200C0032400000CC20104C00100000000000000000000000000000000000000000000000080F33F
:2B204000000010010000000018040010820000010000000000000000000000000000000000000000000000000080F045
:2B206B00808100000000808320000028800001800B00000000000000000000000000000000000000000000000080EE84
:2B209600800110000000800118000010000000020000000000000000000000000000000000000000000000000000FCE7
:2B20C100820118080000800118000028022120800100000000000000000000000000000000000000000000000008E5DF
:2B20EC00021000004100004000010080002000000200000000000000000000000000000000000000000000000088DC2F
:2B211700640006610000E001060000266002067000000000000000000000000000000000000000000000000000109A43
:2B214200820900100001000818000010002020800000000000000000000000000000000000000000000000000088D48A
:2B216D00C2013C400000C0019C00001CD0010CC011000000000000000000000000000000000000000000000000888FCA
:2B219800020800040000000880000018000000880000000000000000000000000000000000000000000000000088F06E
:2B21C300800338000A00000238000098800121808200000000000000000000000000000000000000000000000080CC6A
:2B21EE00000018000000800100000010820100010000000000000000000000000000000000000000000000000000ECAD
:2B2219008001180004008001180000388001000021000000000000000000000000000000000000000000000000D0C7F3
:2B2244000000000000000000000000000000000000000000000000000000000000000000000000000000000000D0B2ED
:2B226F00000000000000000000000000000000000000000000000000000000000000000000000000000000000080E7DD
:2B229A00800008800008800008800008800008800008000000000020000220000220000220000220000220000280E7B6
:2B22C500800008800008800008800008800008800008000000000020000220000220000220000220000220000280E78B
:2B22F000400A22000000208A220000C02000A2000080020000000000000000000000000000000000000000000000EB9C
:2B231B00000000000000000000000000040000000000000000000000000000000000000000000000000000000080E330
:2B234600200000000000000400000000000000400000000000000000000000000000000000000000000000000080C3C5
:2B237100000000000000000000000000000000000000010000000000000000000000000000000000000000000080E6DA
:2B239C00600A22800000208E220000C82400A2400080010000000000000000000000000000000000000000000000C823
:2B23C700400001100801400000100000500004100001000000000000000000000000000000000000000000000000F7E5
:2B23F200000000080001001000080000001004088000000000000000000000000000000000000000000000000080B7CC
:2B241D00002000800000004000000000000000040000000000000000000000000000000000000000000000000000EDC3
:2B244800000080000000000080000000000000000000000000000000000000000000000000000000000000000080E702
:2B2473000A0010000000000418000000040400004000000000000000000000000000000000000000000000000088ED4B
:2B249E00000000000000004000000000002400000800000000000000000000000000000000000000000000000000A502
:2B24C900020000000000000000000000000000000000000000000000000000000000000000000000000000000080E581
:2B24F400000000800000000000000000000000000000000000000000000000000000000000000000000000000000EF4E
:2B251F00000000000000000001000000000001000000000000000000000000000000000000000000000000000080E728
:2B254A00084000000000000000000000000000040000000000000000000000000000000000000000000000000080EFAB
:2B2575000000000A000000000008000400000040A000000000000000000000000000000000000000000000000080EFD6
:2B25A000000000408000000008000000040000000000000000000000000000000000000000000000000000000000A3A1
:2B25CB00000000000000000000000000000000000000000000000000000000000000000000000000000000000080E77E
:2B25F600000000001000000000000000000000000000000000000000000000000000000000000000000000000008EEB4
:2B262100000000000000000000000000000000000000000000000000000000000000000000000000000000000080E727
:2B264C00120000000000000000000000000000000000000000000000000000000000000000000000000000000080F5DC
:2B267700000000000000010000000000000000000000000000000000000000000000000000000000000000000080E6D1
:2B26A200000000000040000000000000000000000000000000000000000000000000000000000000000000000080A3AA
:2B26CD00000000000000000000000000000000000000000000000000000000000000000000000000000000000080E77B
:2B26F800000000000000000000000000000000000000000000000000000000000000000000000000000000000080E750
:2B272300000000000000000000000000000000000000000000000000000000000000000000000000000000000080E724
:2B274E00000000000000000000000000000000000000000000000000000000000000000000000000000000000080E7F9
:2B277900000000000000000000000000000000000000000000000000000000000000000000000000000000000080E7CE
:2B27A400120000000000000000000000000000000000000000000000000000000000000000000000000000000080F583
:2B27CF00000000000000000000000000000000000000000000000000000000000000000000000000000000000080E778
:2B27FA00000000000000000000000000000000000000000000000000000000000000000000000000000000000080E74D
:2B282500000000000000000020000000000000000200000000000000000000000000000000000000000000000080E7FF
:2B285000000000000010000010000000000000000100000000000000000000000000000000000000000000000080F6C6
:2B287B00000000000002000000080000000080080000000000000000000000000000000000000000000000000000C7D9
:2B28A600020000000000000000000000000000080000000000000000000000000000000000000000000000000008E510
:2B28D100020000000000000000000000000000000000000000000000000000000000000000000000000000000080E575
:2B28FC00040000000000000000000000000080000000000000000000000000000000000000000000000000000000E34A
:2B292700020000000002000000080000000000000000000000000000000000000000000000000000000000000080CD2C
:2B295200020000000000000000000000000000000000000000000000000000000000000000000000000000000080E5F3
:2B297D00020000000000000000000000000000000000000000000000000000000000000000000000000000000008ED38
:2B29A800800008800008800008800008800008800008000000000020000220000220000220000220000220000280E7A1
:2B29D300800008800008800008800008800008800008000000000020000220000220000220000220000220000280E776
:2B29FE00000000000000000040000000000000000000000000000000000000000000000000000000000000000080A34B
:2B2A2900020000000006100006000000000000E001010000000000000000000000000000000000000000000000889466
:2B2A5400000000000000010018000000000000000800000000000000000000000000000000000000000000000080FFB7
:2B2A7F000000000000140000A4000000000000C001000000000000000000000000000000000000000000000000808DA6
:2B2AAA00000000000000100000010000000000000000000000000000000000000000000000000000000000000080F67A
:2B2AD500000000000028000018000000000000000A00000000000000000000000000000000000000000000000000F696
:2B2B0000020000000000000018000000000000800100000000000000000000000000000000000000000000000008ED1A
:2B2B2B00000000000038100018000000000000800100000000000000000000000000000000000000000000000000CCD2
:2B2B5600000000000000000000000000000000008000000000000000000000000000000000000000000000000080EF65
:2B2B8100000000000006100086000000000000E001000000000000000000000000000000000000000000000000808E9E
:2B2BAC00020000000000010098000000000000000000000000000000000000000000000000000000000000000008F566
:2B2BD700000000000014000004000000000000402100000000000000000000000000000000000000000000000080A535
:2B2C0200000000000000000000000000000000800100000000000000000000000000000000000000000000000000FE28
:2B2C2D00000000000008010018100000000000001000000000000000000000000000000000000000000000000080E6D5
:2B2C5800000000000020000018000000000000000200000000000000000000000000000000000000000000000000FE19
:2B2C8300020000000018000018000000000000000100000000000000000000000000000000000000000000000008FCEF
:2B2CAE00000000000000080000010000000000808000000000000000000000000000000000000000000000000000EE04
:2B2CD90000000000001600003E000000000000600100000000000000000000000000000000000000000000000000BC5F
:2B2D0400000000000000000000000000000000000100000000000000000000000000000000000000000000000080F62D
:2B2D2F00020000000004100014020000000000C02000000000000000000000000000000000000000000000000000ACC1
:2B2D5A00020000000000000018100000000000000100000000000000000000000000000000000000000000000088F5A6
:2B2D8500040000000010040020000000000000801000000000000000000000000000000000000000000000000088D5FE
:2B2DB000020000000018020000000000000000000300000000000000000000000000000000000000000000000088C58C
:2B2DDB00020000000038000030100000000000800000000000000000000000000000000000000000000000000008FDCE
:2B2E0600020000000040000008010000000000000000000000000000000000000000000000000000000000000000A8AE
:2B2E310000000000003E000036000000000000E00101000000000000000000000000000000000000000000000080861A
:2B2E5C00000000000000000010000000000000000000000000000000000000000000000000000000000000000080F6C5
:2B2E870000000000005C00000C020000000000C00500000000000000000000000000000000000000000000000000AD44
:2B2EB200020000000080000010100000000000000400000000000000000000000000000000000000000000000088A81F
:2B2EDD00020000000038000028000000000000000000000000000000000000000000000000000000000000000080F4F4
:2B2F0800040000000018000010000000000000800100000000000000000000000000000000000000000000000080F27F
:2B2F3300020000000018000028100000000000800100000000000000000000000000000000000000000000000000DFC1
:2B2F5E00020000000040000000000000000000008100000000000000000000000000000000000000000000000080B84D
:2B2F8900020000000026000066000000000000E00000000000000000000000000000000000000000000000000088C166
:2B2FB400000000000018000018000000000000000100000000000000000000000000000000000000000000000080F64B
:2B2FDF0000000000009C000044000000000000C02100000000000000000000000000000000000000000000000000E125
:2B300A00000000000018000000000000000000800000000000000000000000000000000000000000000000000080F68D
:2B303500000000000018000018100000000000001100000000000000000000000000000000000000000000000080E7B8
:2B306000020000000000000018000000000000000300000000000000000000000000000000000000000000000088C7D9
:2B308B00020000000000000018000000000000800100000000000000000000000000000000000000000000000008ED8A
:2B30B600020000000000000010010000000000808100000000000000000000000000000000000000000000000088EC67
:2B30E10002000000001E10002E000000000000600000000000000000000000000000000000000000000000000008AE50
:2B310C00000000000010010010000000000000800100000000000000000000000000000000000000000000000000FFF7
:2B31370000000000000C00001C020000000000402000000000000000000000000000000000000000000000000080B6AD
:2B316200000000000008100008100000000000000000000000000000000000000000000000000000000000000080E7AB
:2B318D00000000000030000030000000000000801100000000000000000000000000000000000000000000000000FF27
:2B31B800020000000018000010000000000000800100000000000000000000000000000000000000000000000008FC3D
:2B31E300000000000038100038100000000000000000000000000000000000000000000000000000000000000080E7CA
:2B320E00000000000000000040000000000000000000000000000000000000000000000000000000000000000080A332
:2B32390000000000007E000006000000000000E00101000000000000000000000000000000000000000000000080F193
:2B326400000000000000100018000000000000001100000000000000000000000000000000000000000000000000FE08
:2B328F0002000000001C0000A4000000000000C000000000000000000000000000000000000000000000000000889E6C
:2B32BA00000000000000000000010000000000800000000000000000000000000000000000000000000000000000EE7A
:2B32E5000000000000B8000018000000000000001100000000000000000000000000000000000000000000000000D508
:2B331000000000000018000018000000000000800300000000000000000000000000000000000000000000000000DC03
:2B333B00020000000018000018000000000000800100000000000000000000000000000000000000000000000000FCB8
:2B336600000000000080000018010000000000000000000000000000000000000000000000000000000000000008F7A4
:2B339100000000000006000026000000000000600800000000000000000000000000000000000000000000000088AD48
:2B33BC00000000000000040018000000000000800900000000000000000000000000000000000000000000000088EBCE
:2B33E70000000000003C000004020000000000400200000000000000000000000000000000000000000000000088B4FB
:2B341200020000000018010000100000000000001000000000000000000000000000000000000000000000000000EC68
:2B343D00000000000000000038000000000000800100000000000000000000000000000000000000000000000080C566
:2B346800000000000018000018000000000000800100000000000000000000000000000000000000000000000000FE8A
:2B349300000000000018000000000000000000800100000000000000000000000000000000000000000000000008EF7E
:2B34BE00080000000000000000000000000000000000000000000000000000000000000000000000000000000028C5EE
:2B34E900000000000000000000000000000000000000000000000000000000000000000000000000000000000080E751
:2B351400800008800008800008800008800008800008000000000020000220000220000220000220000220000280E729
:2B353F00800008800008800008800008800008800008000000000020000220000220000220000220000220000280E7FE
:2B356A00000000000022080100000000000000000200000000000000000000000000000000000000000000000080DEAB
:2B359500000000000000000000000000000000000000000000000000000000000000000000000000000000000080E7A4
:2B35C000000000000000000100000000000000000000000000000000000000000000000000000000000000000080F669
:2B35EB00000000000000000000000002080000000000000000000000000000000000000000000000000000000080CF5C
:2B361600000000000022080000000002080000800200000000000000000000000000000000000000000000000000EFE4
:2B364100000000000010100000100000000000000101000000000000000000000000000000000000000000000080F7B5
:2B366C00000000000000000000000000000000000000000000000000000000000000000000000000000000000080E7CC
:2B369700000000000000080000080000000000000000000000000000000000000000000000000000000000000080E791
:2B36C200000000000000080000080000000000000000000000000000000000000000000000000000000000000080E766
:2B36ED00100000000000000000000000000000000000000000000000000000000000000000000000000000000080F72B
:2B371800000000000080100000000000000000002000000000000000000000000000000000000000000000000000F5E1
:2B374300000000000000000000000000000000000000000000000000000000000000000000000000000000000080E7F4
:2B376E00000000000000000000000000000000000000000000000000000000000000000000000000000000000080E7C9
:2B379900000000000004000000000000000000400000000000000000000000000000000000000000000000000080E75A
:2B37C400000000000000000000000000000000000000000000000000000000000000000000000000000000000080E773
:2B37EF00000000000000000000000000000000000000000000000000000000000000000000000000000000000080E748
:2B381A00000000000000020008000000000000000000000000000000000000000000000000000000000000000000ED8C
:2B384500100000000000000000000000000000000000000000000000000000000000000000000000000000000080F7D1
:2B387000000000000000000000000000000000000000000000000000000000000000000000000000000000000080E7C6
:2B389B00000000200100000000000000000000000000000000000000000000000000000000000000000000000080D68B
:2B38C600000000800000000000000000000000000000000000000000000000000000000000000000000000000000EF68
:2B38F100000000000000000000000000000000000000000000000000000000000000000000000000000000000080E745
:2B391C00000000000000000000000000000000000000000000000000000000000000000000000000000000000080E719
:2B394700A01004E11004411004411004411004411084020000000010044110044110044110044110044110044100A434
:2B397200C01D866119866118866118866118866118061700000000188661188661188661188661188661188661809D1D
:02399D00FFFF2A
:00000001FF
